:020000040800F2
:1000000000500020FD1C00081117000813170008FD
:10001000151700081717000819170008000000003E
:100020000000000000000000000000001B17000896
:100030001D170008000000001F1700082117000806
:10004000451D0008451D0008451D0008451D000808
:10005000451D0008451D0008451D0008451D0008F8
:10006000451D0008451D0008451D0008451D0008E8
:10007000451D0008451D0008451D0008451D0008D8
:10008000451D0008451D0008451D0008451D0008C8
:10009000451D0008451D0008451D0008451D0008B8
:1000A000451D0008451D0008451D0008451D0008A8
:1000B00029170008451D0008451D0008451D0008BA
:1000C000451D0008451D0008451D0008451D000888
:1000D000451D0008451D000839170008491700088C
:1000E000451D0008451D0008451D000800000000D2
:1000F0000000000000000000000000000000000000
:0C01000000000000000000005FF808F1A3
:1001100010B5054C237833B9044B13B10448AFF341
:1001200000800123237010BDD009002000000000D2
:100130009499000808B5034B1BB103490348AFF37A
:10014000008008BD00000000D40900209499000838
:1001500080F0004002E000BF81F0004142001FBF7C
:100160005FEA410392EA030F7FEA226C7FEA236C85
:100170006AD04FEA1262D2EB1363C1BFD21841407A
:1001800048404140B8BF5B42192B88BF704710F010
:10019000004F40F4000020F07F4018BF404211F0B3
:1001A000004F41F4000121F07F4118BF494292EA1B
:1001B000030F3FD0A2F1010241FA03FC10EB0C0047
:1001C000C3F1200301FA03F100F0004302D54942D4
:1001D00060EB4000B0F5000F13D3B0F1807F06D381
:1001E00040084FEA310102F10102FE2A51D2B1F179
:1001F000004F40EBC25008BF20F0010040EA03006E
:100200007047490040EB0000013A28BFB0F5000FED
:10021000EDD2B0FA80FCACF1080CB2EB0C0200FAA3
:100220000CF0AABF00EBC25052421843BCBFD040F2
:100230001843704792F0000F81F4000106BF80F46C
:1002400000000132013BB5E74FEA41037FEA226C2F
:1002500018BF7FEA236C21D092EA030F04D092F0FA
:10026000000F08BF0846704790EA010F1CBF00202E
:10027000704712F07F4F04D1400028BF40F000408B
:10028000704712F100723CBF00F50000704700F0AB
:10029000004343F0FE4040F4000070477FEA2262D2
:1002A00016BF08467FEA23630146420206BF5FEAA3
:1002B000412390EA010F40F4800070474FF00003A3
:1002C00004E000BF10F0004348BF40425FEA000C6A
:1002D00008BF704743F0964301464FF000001CE012
:1002E00050EA010208BF70474FF000030AE000BF68
:1002F00050EA010208BF704711F0004302D54042A6
:1003000061EB41015FEA010C02BF84460146002017
:1003100043F0B64308BFA3F18053A3F50003BCFA32
:100320008CF2083AA3EBC25310DB01FA02FC6344DF
:1003300000FA02FCC2F12002BCF1004F20FA02F2E6
:1003400043EB020008BF20F00100704702F12002D9
:1003500001FA02FCC2F1200250EA4C0021FA02F23A
:1003600043EB020008BF20EADC7070474FF0FF3C0F
:1003700006E000BF4FF0010C02E000BF4FF0010C9F
:100380004DF804CD4FEA40024FEA41037FEA226C68
:1003900018BF7FEA236C11D001B052EA530C18BF8A
:1003A00090EA010F58BFB2EB030088BFC81738BFEF
:1003B0006FEAE17018BF40F0010070477FEA226CDD
:1003C00002D15FEA402C05D17FEA236CE4D15FEAD9
:1003D000412CE1D05DF8040B704700BF844608460D
:1003E0006146FFE70FB5FFF7C9FF002848BF10F1CE
:1003F000000F0FBD4DF808EDFFF7F4FF0CBF012013
:1004000000205DF808FB00BF4DF808EDFFF7EAFF9C
:1004100034BF012000205DF808FB00BF4DF808ED57
:10042000FFF7E0FF94BF012000205DF808FB00BF4C
:100430004DF808EDFFF7D2FF94BF012000205DF8D2
:1004400008FB00BF4DF808EDFFF7C8FF34BF0120DF
:1004500000205DF808FB00BF42000ED2B2F1FE4F53
:100460000BD34FF09E03B3EB126209D44FEA002383
:1004700043F0004323FA02F070474FF0000070474A
:1004800012F1610F01D1420202D14FF0FF307047EB
:100490004FF00000704700BF844641EA000313F0AC
:1004A000030349D1403A23D30B6803604B68436090
:1004B0008B688360CB68C3600B6903614B694361E0
:1004C0008B698361CB69C3610B6A03624B6A4362C8
:1004D0008B6A8362CB6AC3620B6B03634B6B4363B0
:1004E0008B6B8363CB6BC36340304031403ADBD2CC
:1004F00030320BD30B6803604B6843608B688360BA
:10050000CB68C36010301031103AF3D20C3205D3EF
:1005100051F8043B40F8043B043AF9D2043208D0C5
:10052000D2071CBF11F8013B00F8013B01D30B8837
:1005300003806046704700BF082A13D38B07B1D0F1
:1005400010F00303AED0C3F10403D21ADB071CBFC3
:1005500011F8013B00F8013BA4D331F8023B20F82D
:10056000023B9FE7043AD9D3013A11F8013B00F866
:10057000013BF9D20B7803704B7843708B78837012
:100580006046704781F0004102E000BF83F0004305
:1005900030B54FEA41044FEA430594EA050F08BF1E
:1005A00090EA020F1FBF54EA000C55EA020C7FEAE2
:1005B000645C7FEA655C00F0E2804FEA5454D4EB5F
:1005C0005555B8BF6D420CDD2C4480EA020281EA29
:1005D000030382EA000083EA010180EA020281EA61
:1005E0000303362D88BF30BD11F0004F4FEA0131B3
:1005F0004FF4801C4CEA113102D0404261EB4101C2
:1006000013F0004F4FEA03334CEA133302D0524247
:1006100063EB430394EA050F00F0A780A4F1010403
:10062000D5F1200E0DDB02FA0EFC22FA05F280183D
:1006300041F1000103FA0EF2801843FA05F3594123
:100640000EE0A5F120050EF1200E012A03FA0EFCA2
:1006500028BF4CF0020C43FA05F3C01851EBE371CC
:1006600001F0004507D54FF0000EDCF1000C7EEBE9
:1006700000006EEB0101B1F5801F1BD3B1F5001F27
:100680000CD349085FEA30004FEA3C0C04F1010446
:100690004FEA445212F5800F80F09A80BCF1004F6F
:1006A00008BF5FEA500C50F1000041EB045141EAF1
:1006B000050130BD5FEA4C0C404141EB0101013CBA
:1006C00028BFB1F5801FE9D291F0000F04BF0146A9
:1006D0000020B1FA81F308BF2033A3F10B03B3F17B
:1006E00020020CDA0C3208DD02F1140CC2F10C020B
:1006F00001FA0CF021FA02F10CE002F11402D8BF69
:10070000C2F1200C01FA02F120FA0CFCDCBF41EA34
:100710000C019040E41AA2BF01EB0451294330BD03
:100720006FEA04041F3C1CDA0C340EDC04F11404E0
:10073000C4F1200220FA04F001FA02F340EA0300B7
:1007400021FA04F345EA030130BDC4F10C04C4F1FD
:10075000200220FA02F001FA04F340EA03002946DD
:1007600030BD21FA04F0294630BD94F0000F83F427
:10077000801306BF81F480110134013D4EE77FEA0A
:10078000645C18BF7FEA655C29D094EA050F08BF56
:1007900090EA020F05D054EA000C04BF1946104637
:1007A00030BD91EA030F1EBF0021002030BD5FEA7B
:1007B000545C05D14000494128BF41F0004130BDA3
:1007C00014F580043CBF01F5801130BD01F00045F7
:1007D00045F0FE4141F470014FF0000030BD7FEA6A
:1007E000645C1ABF194610467FEA655C1CBF0B4665
:1007F000024650EA013406BF52EA033591EA030F7C
:1008000041F4002130BD00BF90F0000F04BF002173
:10081000704730B54FF4806404F132044FF00005A6
:100820004FF0000150E700BF90F0000F04BF00211F
:10083000704730B54FF4806404F1320410F0004585
:1008400048BF40424FF000013EE700BF42004FEA80
:10085000E2014FEA31014FEA02701FBF12F07F43FD
:1008600093F07F4F81F06051704732F07F4208BFB4
:10087000704793F07F4F04BF41F40021704730B5BB
:100880004FF4607401F0004521F000411CE700BF07
:1008900050EA010208BF704730B54FF000050AE08A
:1008A00050EA010208BF704730B511F0004502D58B
:1008B000404261EB41014FF4806404F132045FEA8D
:1008C000915C3FF4D8AE4FF003025FEADC0C18BF36
:1008D00003325FEADC0C18BF033202EBDC02C2F128
:1008E000200300FA03FC20FA02F001FA03FE40EABA
:1008F0000E0021FA02F11444BDE600BF70B54FF0BE
:10090000FF0C4CF4E06C1CEA11541DBF1CEA13559B
:1009100094EA0C0F95EA0C0F00F0DEF82C4481EA03
:10092000030621EA4C5123EA4C5350EA013518BF23
:1009300052EA033541F4801143F4801338D0A0FB10
:1009400002CE4FF00005E1FB02E506F00042E0FBBD
:1009500003E54FF00006E1FB03569CF0000F18BFC3
:100960004EF0010EA4F1FF04B6F5007F64F540746B
:1009700004D25FEA4E0E6D4146EB060642EAC621FE
:1009800041EA55514FEAC52040EA5E504FEACE2E6B
:10099000B4F1FD0C88BFBCF5E06F1ED8BEF1004F6E
:1009A00008BF5FEA500E50F1000041EB045170BDEA
:1009B00006F0004646EA010140EA020081EA03012E
:1009C000B4EB5C04C2BFD4EB0C0541EA045170BD2A
:1009D00041F480114FF0000E013C00F3AB8014F1A4
:1009E000360FDEBF002001F0004170BDC4F10004ED
:1009F000203C35DA0C341BDC04F11404C4F120056E
:100A000000FA05F320FA04F001FA05F240EA0200C8
:100A100001F0004221F0004110EBD37021FA04F6FE
:100A200042EB06015EEA430E08BF20EAD37070BDB8
:100A3000C4F10C04C4F1200500FA04F320FA05F017
:100A400001FA04F240EA020001F0004110EBD37019
:100A500041F100015EEA430E08BF20EAD37070BD89
:100A6000C4F1200500FA05F24EEA020E20FA04F362
:100A700001FA05F243EA020321FA04F001F0004111
:100A800021FA04F220EA020000EBD3705EEA430E82
:100A900008BF20EAD37070BD94F0000F0FD101F0B1
:100AA0000046400041EB010111F4801F08BF013CEA
:100AB000F7D041EA060195F0000F18BF704703F028
:100AC0000046520043EB030313F4801F08BF013DAF
:100AD000F7D043EA0603704794EA0C0F0CEA13556B
:100AE00018BF95EA0C0F0CD050EA410618BF52EA25
:100AF0004306D1D181EA030101F000414FF000002B
:100B000070BD50EA410606BF1046194652EA430638
:100B100019D094EA0C0F02D150EA013613D195EAAC
:100B20000C0F05D152EA03361CBF104619460AD1F4
:100B300081EA030101F0004141F0FE4141F47001FE
:100B40004FF0000070BD41F0FE4141F4780170BDEE
:100B500070B54FF0FF0C4CF4E06C1CEA11541DBF53
:100B60001CEA135594EA0C0F95EA0C0F00F0A7F855
:100B7000A4EB050481EA030E52EA03354FEA013182
:100B800000F088804FEA03334FF0805545EA131395
:100B900043EA12634FEA022245EA111545EA10655D
:100BA0004FEA00260EF000419D4208BF964244F1F4
:100BB000FD0404F5407402D25B084FEA3202B61A13
:100BC00065EB03055B084FEA32024FF480104FF4E7
:100BD000002CB6EB020E75EB030E22BFB61A75465B
:100BE00040EA0C005B084FEA3202B6EB020E75EBEE
:100BF000030E22BFB61A754640EA5C005B084FEA56
:100C00003202B6EB020E75EB030E22BFB61A754622
:100C100040EA9C005B084FEA3202B6EB020E75EB2D
:100C2000030E22BFB61A754640EADC0055EA060EEE
:100C300018D04FEA051545EA16754FEA06164FEA31
:100C4000C30343EA52734FEAC2025FEA1C1CC0D1DD
:100C500011F4801F0BD141EA00014FF000004FF06A
:100C6000004CB6E711F4801F04BF01430020B4F12B
:100C7000FD0C88BFBCF5E06F3FF6AFAEB5EB030CE3
:100C800004BFB6EB020C5FEA500C50F1000041EBE0
:100C9000045170BD0EF0004E4EEA113114EB5C04AD
:100CA000C2BFD4EB0C0541EA045170BD41F4801180
:100CB0004FF0000E013C90E645EA060E8DE60CEA88
:100CC000135594EA0C0F08BF95EA0C0F3FF43BAFA5
:100CD00094EA0C0F0AD150EA01347FF434AF95EA5C
:100CE0000C0F7FF425AF104619462CE795EA0C0F40
:100CF00006D152EA03353FF4FDAE1046194622E70D
:100D000050EA410618BF52EA43067FF4C5AE50EAE6
:100D100041047FF40DAF52EA43057FF4EBAE12E7D6
:100D20004FF0FF3C06E000BF4FF0010C02E000BFB7
:100D30004FF0010C4DF804CD4FEA410C7FEA6C5C9A
:100D40004FEA430C18BF7FEA6C5C1BD001B050EA3D
:100D5000410C0CBF52EA430C91EA030F02BF90EA28
:100D6000020F0020704710F1000F91EA030F58BFE7
:100D7000994208BF90422CBFD8176FEAE37040F049
:100D8000010070474FEA410C7FEA6C5C02D150EAE7
:100D9000013C07D14FEA430C7FEA6C5CD6D152EAA2
:100DA000033CD3D05DF8040B704700BF8446104667
:100DB00062468C461946634600E000BF01B5FFF766
:100DC000B7FF002848BF10F1000F01BD4DF808ED36
:100DD000FFF7F4FF0CBF012000205DF808FB00BF07
:100DE0004DF808EDFFF7EAFF34BF012000205DF861
:100DF00008FB00BF4DF808EDFFF7E0FF94BF0120AE
:100E000000205DF808FB00BF4DF808EDFFF7CEFFAE
:100E100094BF012000205DF808FB00BF4DF808EDED
:100E2000FFF7C4FF34BF012000205DF808FB00BFBE
:100E30004FEA410C7FEA6C5C02D150EA013C0AD1D6
:100E40004FEA430C7FEA6C5C02D152EA033C02D1C8
:100E50004FF0000070474FF0010070474FEA410229
:100E600012F5001215D211D56FF47873B3EB6252FC
:100E700012D94FEAC12343F0004343EA505311F023
:100E8000004F23FA02F018BF404270474FF00000B5
:100E9000704750EA013005D111F0004008BF6FF0F3
:100EA000004070474FF00000704700BF53B94AB987
:100EB000002908BF00281CBF4FF0FF314FF0FF3062
:100EC00000F076B9ADF1080C6DE904CE00F006F83B
:100ED000DDF804E0DDE9022304B070472DE9F047B6
:100EE000089E0D4604468846002B4DD18A42944602
:100EF00068D9B2FA82F252B101FA02F3C2F12001CA
:100F000020FA01F10CFA02FC41EA030894404FEA8E
:100F10001C41B8FBF1F71FFA8CFE01FB178807FB99
:100F20000EF0230C43EA084398420AD91CEB030352
:100F300007F1FF3580F01E81984240F21B81023F8D
:100F400063441B1AB3FBF1F001FB103300FB0EFEF0
:100F5000A4B244EA0344A6450AD91CEB040400F1F8
:100F6000FF3380F00981A64540F2068164440238CF
:100F70000021A4EB0E0440EA07401EB10023D44038
:100F8000C6E90043BDE8F0878B4208D9002E00F087
:100F9000EE800021C6E900050846BDE8F087B3FAF7
:100FA00083F100294AD1AB4202D3824200F2FC8095
:100FB000841A65EB030301209846002EE2D0C6E9AF
:100FC0000048DFE702B9FFDEB2FA82F2002A40F001
:100FD0009180A1EB0C0001214FEA1C471FFA8CFE07
:100FE000B0FBF7F307FB1300250C45EA00450EFBA9
:100FF00003F0A84208D91CEB050503F1FF3802D223
:10100000A84200F2CE8043462D1AB5FBF7F007FB4D
:1010100010550EFB00FEA4B244EA0544A64508D9CB
:101020001CEB040400F1FF3502D2A64500F2B680A5
:101030002846A4EB0E0440EA03409EE7C1F12007D6
:101040008B4022FA07FC4CEA030C25FA07FA4FEA18
:101050001C49BAFBF9F820FA07F309FB18AA8D40DE
:101060001FFA8CFE1D4300FA01F308FB0EF02C0C56
:1010700044EA0A44A04202FA01F20BD91CEB040430
:1010800008F1FF3A80F08880A04240F28580A8F104
:1010900002086444241AB4FBF9F009FB104400FB75
:1010A0000EFEADB245EA0444A64508D91CEB040483
:1010B00000F1FF356CD2A6456AD90238644440EA93
:1010C0000840A0FB0295A4EB0E04AC42C846AE4615
:1010D00056D353D0002E69D0B3EB080264EB0E0454
:1010E00022FA01F304FA07F71F43CC40C6E9007463
:1010F000002147E70CFA02FCC2F1200125FA01F3B6
:101100004FEA1C4720FA01F195400D43B3FBF7F17C
:1011100007FB11331FFA8CFE280C40EA034001FB49
:101120000EF3834204FA02F408D91CEB000001F12B
:10113000FF382FD283422DD902396044C01AB0FB48
:10114000F7F307FB1300ADB245EA004503FB0EF0D1
:10115000A84208D91CEB050503F1FF3816D2A842B6
:1011600014D9023B6544281A43EA014138E7314665
:10117000304607E72F46E4E61846F9E64B45A9D284
:10118000B9EB020865EB0C0E0138A3E74346EAE72A
:10119000284694E74146D1E7D0467BE764440238CD
:1011A00047E7023B65442FE7084606E73146E9E694
:1011B000704700BF30B54FF0000E754674460CE026
:1011C00004EB8404303B03EB440404E02D2B17D0E4
:1011D0000C60002425460EF1010E10F80E30622B33
:1011E00010D0A3F1300C5FFA8CFCBCF1090FEDD8E4
:1011F000002DE5D004EB8404303BC3EB4404EAE764
:101200000125E8E7146030BD08B501220849094806
:1012100002F0A9FB0028F8D1074B187800B908BDE7
:101220000023064A1370044A13700120F7E700BF39
:101230000F0000207C0B0020ED090020EC090020AD
:101240000EB470B5C3B0054647AC54F8046B00212A
:101250000291FB2203A802F0C3FB0194224631460F
:1012600002A802F03DFC02A802F00CFCFF2382B2AF
:1012700002A9284602F02EF943B0BDE8704003B041
:10128000704710B504460021FFF7BEF808B92046A4
:1012900010BD04F10044FAE770B50C46051E1CDCD5
:1012A000002D26DB4DB12846FFF70CF8FFF7E9FFCC
:1012B000224B1D68FFF7D0F8A863002C25DC002C1A
:1012C0002FDB4CB12046FEF7FDFFFFF7DAFF1B4B8B
:1012D0001C68FFF7C1F8606370BD194E002202213F
:1012E000304600F07DFF01221146304600F078FFC5
:1012F000D8E7134E01220221304600F071FF002290
:101300000121304600F06CFFCCE70D4D002210218A
:10131000284600F065FF01220821284600F060FF02
:10132000CFE7074D01221021284600F059FF002287
:101330000821284600F054FFC3E700BF140A00202C
:10134000000C014030B589B0002404940594069443
:1013500007941A4B9A6942F020029A619A6902F046
:1013600020020192019A9A6942F004029A619A69F4
:1013700002F004020292029A9A6942F008029A610B
:101380009B6903F008030393039B0D4D2246112133
:10139000284600F025FF01220A21284600F020FF00
:1013A0001B2304930123059306940323079304A9A5
:1013B000284600F003FE09B030BD00BF0010024017
:1013C000000C0140F8B5214B834200D0F8BD204C01
:1013D000B4F90410E1801F4B1B685B6A1BB2A38049
:1013E0009AB289B2521A12B222811B4DB5F9041079
:1013F000E9801A4B1B685B6A1BB2AB809BB289B257
:101400005B1A1BB22B8116491648FFF719FFFFF72D
:10141000FBFE154F154EB5F90830B4F908203946D2
:101420003046FFF70DFF124D124C2A462146124856
:10143000FFF7C0FE2B68226839463046FFF700FFF1
:1014400029682068FFF728FFC0E700BF5C0A00207A
:10145000F0090020A40A0020FC090020EC0A00206A
:10146000B09900087C0B0020BC990008340B0020C8
:101470000C0A0020080A00200000002008B54A4B92
:10148000984203D0494B984247D008BD484B1B783F
:10149000402B08D0464B31221A700023454A137066
:1014A000454A1370F1E7444B01221A70414B1978F9
:1014B000E1B121B14B1E414AD35C212B18D0404BE6
:1014C0001B78212B14D00E2921D84A1C394B1A70B5
:1014D00001223A4B1944344802F045FAD5E7374A1D
:1014E0002020D05401330E2BF9DDE2E70123FAE787
:1014F000334B1B78212B03D00139304B20225A5417
:101500002B4B31221A702E4B20221A70BDE701227C
:101510002B49254802F027FAB7E7254B1B78232BE8
:1015200008D0234B31221A700023224A1370224A1A
:101530001370AAE7204B01221A701E4B1978A9B12B
:1015400021B14B1E1D4AD35C212B17D01C4B1B789D
:10155000212B13D00E2920D84A1C164B1A700122B9
:10156000164B1944114802F0FEF98EE701230E2BA9
:10157000E6DC124A2020D0540133F8E7104B1B78E8
:10158000212B03D001390D4B20225A54084B312214
:101590001A700B4B20221A7077E701220849034882
:1015A00002F0E1F971E700BF340B00207C0B002052
:1015B0000F000020EC090020ED09002000000020B1
:1015C0001000002072B6FEE700B591B0282200217D
:1015D00006A802F005FA00230193029303930493F3
:1015E0000593012206924FF4803307930A92022258
:1015F0000D920E934FF4E0130F9306A800F00CFE2B
:1016000080B90F23019302210291002303934FF429
:1016100080620492059301A801F030F820B911B05E
:101620005DF804FBFFF7CEFFFFF7CCFF08B500F035
:10163000B1FBFFF7C9FF4FF47A7000F0CFFBFFF763
:1016400081FE00F0C3FA00F0A7FA00F0E5F800F020
:1016500027FA00F019F900F049F9164C204601F07C
:101660009BF9154801F0C6F9144E304601F0C2F955
:10167000134D284601F0BEF93C21304601F046FDED
:101680003C21284601F042FD0021204601F0D0FC1B
:101690000421204601F0CCFC0A4D0B4CFF23012213
:1016A0002946204601F016FF29462046FFF7C8FDCF
:1016B000FEE700BF140A00205C0A0020A40A0020F4
:1016C000EC0A0020C4990008340B002082B00E4BB5
:1016D0009A6942F001029A619A6902F0010200924D
:1016E000009ADA6942F08052DA61DB6903F08053D4
:1016F0000193019B054A536823F0E06343F00073B4
:10170000536002B0704700BF00100240000001406B
:10171000FEE7FEE7FEE7FEE7FEE77047704770472B
:1017200008B500F049FB08BD08B5024801F09BF977
:1017300008BD00BF5C0A002008B5024801F0B4FFF4
:1017400008BD00BF340B002008B5024801F0ACFF13
:1017500008BD00BF7C0B00200120704708B502F0D7
:1017600015F9162303604FF0FF3008BD08B54FF0A0
:10177000FF31FFF7F3FFFEE770B50C461646002574
:1017800006E0AFF30080214601F8010B01350C465D
:10179000B542F6DB304670BD70B50C4616460025E6
:1017A00004E014F8010BAFF300800135B542F8DB1B
:1017B000304670BD4FF0FF3070474FF400534B6020
:1017C00000207047012070470020704710B5034685
:1017D0000C4A0D490D48006840B10C4800680344AC
:1017E000521A934206D8094A136010BD0748084CA4
:1017F0000460F2E702F0CAF80C2303604FF0FF30F8
:10180000F3E700BF0050002000040000100A002091
:10181000100C00207047000000B587B00023029331
:101820000393049305930093019316484FF080426D
:10183000026040F2CF224260836040F2F312C26045
:101840000361836101F006FA90B94FF4805302936B
:1018500002A90C4801F05EFB68B9002300930193D4
:101860006946084801F0B8FC40B907B05DF804FBD0
:10187000FFF7A8FEE9E7FFF7A5FEEEE7FFF7A2FEF8
:10188000F3E700BF5C0A002000B58DB024220021E0
:1018900003A802F0A5F80023019302931148124A0D
:1018A0000260436083604FF6FF72C2600361836130
:1018B0000323039301230593099303A901F022FA5B
:1018C00050B900230193029301A9064801F084FC5A
:1018D00028B90DB05DF804FBFFF774FEF1E7FFF7E0
:1018E00071FEF6E7A40A00200004004000B58DB0A8
:1018F0002422002103A802F073F80023019302932D
:101900001148124A0260436083604FF6FF72C26062
:10191000036183610323039301230593099303A9BF
:1019200001F0F0F950B900230193029301A9064890
:1019300001F052FC28B90DB05DF804FBFFF742FE40
:10194000F1E7FFF73FFEF6E7EC0A00200008004051
:1019500000B583B00368144A934205D0B3F1804FB9
:101960000DD003B05DF804FB104B9A6942F400629D
:101970009A619B6903F400630093009BF1E703F510
:101980000433DA6942F00102DA61DB6903F0010332
:101990000193019B002201211C2000F045FA1C202C
:1019A00000F07AFADDE700BF002C01400010024091
:1019B00000B589B000230493059306930793036849
:1019C0001E4A934205D01E4A93421CD009B05DF8CE
:1019D00004FB1C4BDA6942F00202DA61DA6902F0B8
:1019E00002020092009A9A6942F004029A619B698D
:1019F00003F004030193019BC023049304A912483C
:101A000000F0DCFAE2E70F4BDA6942F00402DA6137
:101A1000DA6902F004020292029A9A6942F008021C
:101A20009A619B6903F008030393039BC02304930B
:101A300004A9064800F0C2FAC8E700BF000400404D
:101A4000000800400010024000080140000C014066
:101A500000B587B0002302930393049305930268B3
:101A60000D4B9A4202D007B05DF804FB03F56443C6
:101A70009A6942F004029A619B6903F0040301939E
:101A8000019B4FF44073029302230393059302A931
:101A9000024800F093FAE6E7002C014000080140FC
:101AA00010B596B0002412941394149415941094C5
:101AB000119409940A940B940C940D940E940F9421
:101AC0002022214601A801F08BFF3148314B0360F1
:101AD0004460846040F2E733C36004614461846120
:101AE00001F0B8F800283ED14FF48053129312A9A8
:101AF000274801F00FFA002838D1254801F0D6F820
:101B0000002836D100231093119310A9204801F02A
:101B100063FB002830D16023099300220A920B92C4
:101B20000C920D920E920F9209A9194801F078F9C2
:101B300028BB042209A9164801F072F910BB002342
:101B4000019302930393049305934FF4005206927A
:101B5000089301A90E4801F075FBB0B90C48FFF7D6
:101B600077FF16B010BDFFF72DFDBDE7FFF72AFD8B
:101B7000C3E7FFF727FDC5E7FFF724FDCBE7FFF736
:101B800021FDD6E7FFF71EFDD9E7FFF71BFDE5E7CF
:101B9000140A0020002C014008B50A480A4B0360D3
:101BA0004FF4FA33436000238360C36003610C2267
:101BB00042618361C36101F05DFC00B908BDFFF7BC
:101BC00001FDFBE7340B00200044004008B50A4843
:101BD0000A4B03600A4B436000238360C3600361C8
:101BE0000C2242618361C36101F044FC00B908BD6D
:101BF000FFF7E8FCFBE700BF7C0B0020004800403B
:101C000040420F0030B589B000230493059306933A
:101C100007930368344A934204D0344A934231D044
:101C200009B030BD324BDA6942F40032DA61DA6968
:101C300002F400320092009A9A6942F004029A611A
:101C40009B6903F004030193019B04230493022383
:101C5000059303230793274D04A9284600F0AEF906
:101C60000823049300240594069404A9284600F050
:101C7000A5F922462146262000F0D6F8262000F0BD
:101C80000BF9CDE71A4BDA6942F48022DA61DA699E
:101C900002F480220292029A9A6942F008029A6142
:101CA0009B6903F008030393039B4FF48063049341
:101CB00002230593032307930F4D04A9284600F040
:101CC0007DF94FF40063049300240594069404A95D
:101CD000284600F073F922462146272000F0A4F898
:101CE000272000F0D9F89BE700440040004800405E
:101CF0000010024000080140000C0140FFF78AFD7F
:101D00000B480C490C4A002302E0D458C450043359
:101D1000C4188C42F9D3094A094C002301E013602E
:101D20000432A242FBD301F037FEFFF77FFC70477D
:101D300000000020D0090020049E0008D0090020E7
:101D4000100C0020FEE7000010B504460E4B18787A
:101D50004FF47A73B3FBF0F30C4A1068B0FBF3F066
:101D600000F0A8F868B90F2C01D901200AE0002280
:101D700021464FF0FF3000F057F8054B1C60002063
:101D800000E0012010BD00BF18000020140000205A
:101D90001C00002008B5074A136843F010031360C5
:101DA000032000F02FF80F20FFF7CEFFFFF78EFC87
:101DB000002008BD00200240034A1168034B1B7835
:101DC0000B441360704700BFC40B002018000020B4
:101DD000014B1868704700BFC40B002038B504469B
:101DE000FFF7F6FF0546B4F1FF3F02D0044B1B7826
:101DF0001C44FFF7EDFF401BA042FAD338BD00BFE3
:101E000018000020074AD36823F4E0631B041B0C6E
:101E1000000200F4E060034343F0BF6343F4003387
:101E2000D360704700ED00E000B5194BDB68C3F3E9
:101E30000223C3F1070CBCF1040F28BF4FF0040CC0
:101E400003F1040EBEF1060F18D9033B4FF0FF3E1D
:101E50000EFA0CFC21EA0C0199400EFA03F322EA77
:101E60000303194300280BDB0901C9B200F16040EC
:101E700000F5614080F800135DF804FB0023E5E7FE
:101E800000F00F000901C9B2024B1954F4E700BF7A
:101E900000ED00E014ED00E0002807DB00F01F0279
:101EA000400901239340024A42F82030704700BFA6
:101EB00000E100E00138B0F1807F0BD24FF0E02369
:101EC0005861054AF02182F823100020986107220A
:101ED0001A6170470120704700ED00E090F8213052
:101EE000DBB2022B06D004238363002380F820306A
:101EF000012070470268136823F00E031360026824
:101F0000136823F001031360036CC16B012202FA12
:101F100003F34B6080F82120002380F8203018461E
:101F20007047000008B590F82130DBB2022B03D0D7
:101F300004238363012008BD0268136823F00E03A5
:101F400013600268136823F0010313600368194AE1
:101F5000934214D0143293421FD0143293421ED0B5
:101F6000143293421ED0143293421ED01432934244
:101F700002D04FF0807203E04FF4801200E00122A3
:101F80000D4B5A60012380F82130002380F8203067
:101F9000436B6BB198470020CDE71022F0E74FF478
:101FA0008072EDE74FF48052EAE74FF48032E7E7C2
:101FB0000020C0E7080002400000024070B582B077
:101FC0000024A446A6E0804DAA4210D007D97F4D38
:101FD000AA420CD005F58035AA4208D013E0A5F539
:101FE0008015AA4203D005F57025AA4207D18A6858
:101FF000002A58D0012A51D04361082403E0A5F5F6
:102000008015AA42F3D0BEF1FF0F4ED80646BEF1AE
:10201000FF0F4CD84FEA8C0233680F25954023EA16
:10202000050304FA02F2134333604B6813F0805F38
:102030006ED0674B9A6942F001029A619B6903F086
:1020400001030193019B4FEA9C02951C614B53F8DD
:1020500025600CF003039D000F23AB4026EA030626
:102060005D4B984229D003F58063984200F08E8042
:1020700003F58063984200F08B8003F580639842FB
:1020800019D004231AE0CC68BDE7CC680434BAE761
:10209000CC680834B7E7CC680C34B4E70361082493
:1020A000B1E70024AFE70424ADE7061DAFE7ACF1CC
:1020B00008029200B0E7032300E00023AB40334363
:1020C0000232444D45F822304B6813F4801F61D032
:1020D000424A936843EA0E0393604B6813F4001F6F
:1020E0005ED03E4AD36843EA0E03D3604B6813F4D4
:1020F000003F5BD0394A536843EA0E0353604B6894
:1021000013F4803F58D0354A136843EA0E03136036
:102110000CF1010C0A6832FA0CF353D0012303FAD4
:102120000CF302EA030E33EA0202F1D14A68122AE2
:102130003FF649AF122A3FF666AF01A555F822F0E7
:10214000EF1F00088720000891200008A320000846
:1021500007200008072000080720000807200008C3
:1021600007200008072000080720000807200008B3
:1021700007200008072000080720000807200008A3
:10218000072000088B20000897200008012395E70E
:10219000022393E7114A936823EA0E0393609CE7B6
:1021A0000E4AD36823EA0E03D3609FE70B4A5368B5
:1021B00023EA0E035360A2E7084A136823EA0E03DA
:1021C0001360A5E702B070BD0000221000003110BE
:1021D00000100240000001400008014000040140DE
:1021E0000AB10161704709040161704782B0084B70
:1021F0001B68084AA2FB03235B0A00FB03F301935D
:1022000000BF019B5A1E0192002BF9D102B070470A
:1022100014000020D34D6210002800F0F18170B549
:1022200082B00446036813F0010F2CD0994B5B6811
:1022300003F00C03042B1DD0964B5B6803F00C03DA
:10224000082B12D06368B3F5803F41D0002B55D1E5
:1022500003F1804303F504331A6822F480321A60D4
:102260001A6822F480221A6037E08A4B5B6813F404
:10227000803FE7D0874B1B6813F4003F03D06368AF
:10228000002B00F0BF81236813F0020F75D0814B43
:102290005B6813F00C0F5FD07E4B5B6803F00C03A0
:1022A000082B54D02369002B00F08A807A4B01223E
:1022B0001A60FFF78DFD0546764B1B6813F0020F81
:1022C00075D1FFF785FD401B0228F5D903209EE15B
:1022D000704A136843F480331360636843B3FFF7B5
:1022E00077FD05466B4B1B6813F4003FCBD1FFF71E
:1022F0006FFD401B6428F5D9032088E1B3F5A02FBA
:1023000009D0644B1A6822F480321A601A6822F4E9
:1023100080221A60E1E703F18043A3F53C331A6899
:1023200042F480221A601A6842F480321A60D4E7BC
:10233000FFF74EFD0546574B1B6813F4003FA2D034
:10234000FFF746FD401B6428F5D903205FE1514BA0
:102350005B6813F4803FA5D14E4B1B6813F0020F4E
:1023600003D02369012B40F04F814A4A136823F0C0
:10237000F803616943EAC1031360236813F0080F8F
:1023800033D0A369002B5CD0434B0122C3F88024D7
:10239000FFF71EFD05463F4B5B6A13F0020F21D18C
:1023A000FFF716FD401B0228F5D903202FE1394A1B
:1023B000136823F0F803616943EAC1031360DCE7A3
:1023C000354B00221A60FFF703FD0546314B1B68B1
:1023D00013F0020FD1D0FFF7FBFC401B0228F5D908
:1023E000032014E10120FFF701FF236813F0040F1D
:1023F00000F09680274BDB6913F0805F34D1254BCA
:10240000DA6942F08052DA61DB6903F080530193AC
:10241000019B0125214B1B6813F4807F26D0E368C4
:10242000012B3DD0002B53D103F1804303F504333E
:102430001A6A22F001021A621A6A22F004021A626F
:1024400033E0154B0022C3F88024FFF7C1FC05469A
:10245000104B5B6A13F0020FC7D0FFF7B9FC401BAB
:102460000228F5D90320D2E00025D3E70B4A1368F0
:1024700043F480731360FFF7ABFC0646074B1B6801
:1024800013F4807FCBD1FFF7A3FC801B6428F5D920
:102490000320BCE0001002400000424200700040F7
:1024A0005F4A136A43F001031362E36833B3FFF733
:1024B0008FFC06465A4B1B6A13F0020F2FD1FFF711
:1024C00087FC801B41F288339842F3D903209EE0B9
:1024D000052B09D0524B1A6A22F001021A621A6ABD
:1024E00022F004021A62E0E74D4B1A6A42F004023D
:1024F0001A621A6A42F001021A62D6E7FFF768FC14
:102500000646474B1B6A13F0020F08D0FFF760FC2A
:10251000801B41F288339842F3D9032077E0E5B974
:10252000E369002B72D03E4A526802F00C02082A7E
:1025300056D0022B17D03B4B00221A66FFF748FCFF
:102540000446374B1B6813F0007F47D0FFF740FC71
:10255000001B0228F5D9032059E0314AD36923F042
:102560008053D361DCE72F4B00221A66FFF730FC63
:1025700005462B4B1B6813F0007F06D0FFF728FCA5
:10258000401B0228F5D9032041E0236AB3F5803FC0
:102590001AD023494B6823F47413226A606A0243F9
:1025A00013434B601F4B01221A66FFF711FC0446D0
:1025B0001B4B1B6813F0007F0ED1FFF709FC001BBB
:1025C0000228F5D9032022E0154A536823F400338A
:1025D000A1680B435360DCE7002018E0002016E000
:1025E000012B16D00E4B5B6803F48031226A9142B6
:1025F00011D103F47013626A93420ED1002006E0F9
:1026000001207047012002E0012000E0002002B01C
:1026100070BD0120FBE70120F9E70120F7E700BFCB
:1026200000100240000042420F4B5B6803F00C02B6
:10263000082A01D00D487047C3F383420C49885CD7
:1026400013F4803F0BD0084B5B68C3F34043094A47
:10265000D35C064A02FB00F0B0FBF3F07047064B78
:1026600003FB00F0704700BF0010024000127A0028
:10267000E0990008F099000800093D00002800F0EA
:10268000A08070B50D460446524B1B6803F007034B
:102690008B420BD24F4A136823F007030B4313609E
:1026A000136803F007038B4240F08D80236813F01A
:1026B000020F17D013F0040F04D0474A536843F4B5
:1026C000E0635360236813F0080F04D0424A536854
:1026D00043F460535360404A536823F0F003A16809
:1026E0000B435360236813F0010F31D06368012B53
:1026F00020D0022B25D0384A126812F0020F64D085
:1027000035494A6822F0030213434B60FFF760FB30
:102710000646314B5B6803F00C036268B3EB820F33
:1027200016D0FFF755FB801B41F288339842F0D951
:10273000032045E0284A126812F4003FE0D101204E
:102740003EE0254A126812F0007FD9D1012037E01F
:10275000204B1B6803F00703AB420AD91D4A1368DC
:1027600023F007032B431360136803F00703AB4206
:102770002DD1236813F0040F06D0174A536823F4B1
:10278000E063E1680B435360236813F0080F07D040
:10279000114A536823F46053216943EAC10353602B
:1027A000FFF742FF0C4B5B68C3F303130B4AD35C88
:1027B000D8400B4B18600B4B1868FFF7C5FA002088
:1027C00070BD012070470120FAE70120F8E70120E1
:1027D000F6E700BF0020024000100240C899000840
:1027E000140000201C000020014B1868704700BF37
:1027F0001400002008B5FFF7F7FF044B5B68C3F334
:102800000223034AD35CD84008BD00BF0010024039
:10281000D899000808B5FFF7E7FF044B5B68C3F3DE
:10282000C223034AD35CD84008BD00BF0010024059
:10283000D899000870B4036A026A22F001020262A9
:102840004668826922F073020C6844EA020523F0AC
:1028500002028B6813430D4CA04209D00B4CA042DE
:102860000DD0466085614A684263036270BC704760
:1028700023F00803CA68134323F00403EEE726F4A9
:1028800040764A6932438E691643EAE7002C0140DC
:1028900030B4036A026A22F4807202624568C26937
:1028A00022F073020C68224323F400738C6843EA1D
:1028B00004230F4CA04209D00D4CA0420ED045601D
:1028C000C2614A68C263036230BC704723F400638C
:1028D000CC6843EA042323F48063EDE725F44055F4
:1028E0004C6945EA04158C6945EA0415E7E700BF21
:1028F000002C014030B4036A026A22F48052026262
:102900004468C26922F4E6420D6842EA052223F4D3
:1029100000538D6843EA0533074DA84206D0446052
:10292000C2614A680264036230BC704724F4804488
:102930004D6944EA8514F2E7002C014010B4036AA3
:10294000046A24F001040462846924F0F00C4CEA67
:10295000021223F00A030B438261036210BC70472A
:1029600010B4036A046A24F010040462846924F435
:10297000704C4CEA023223F0A00343EA0113826157
:10298000036210BC7047836823F070030B4343F06D
:10299000070383607047000090F83D30DBB2012BE5
:1029A00022D1022380F83D300368114A934210D0AF
:1029B000B3F1804F0DD0A2F59432934209D002F5C5
:1029C0008062934205D01A6842F001021A6000202A
:1029D00070479A6802F00702062A07D01A6842F088
:1029E00001021A60002070470120704700207047E4
:1029F000002C014090F83D30DBB2012B27D102239F
:102A000080F83D300268D36843F00103D360036867
:102A1000114A934210D0B3F1804F0DD0A2F59432F9
:102A2000934209D002F58062934205D01A6842F0C1
:102A300001021A60002070479A6802F00702062A15
:102A400007D01A6842F001021A6000207047012086
:102A500070470020704700BF002C0140704770474E
:102A600070477047704710B5044603681A6912F042
:102A7000020F11D0DA6812F0020F0DD06FF00202CF
:102A80001A610123037703689B6913F0030F70D069
:102A9000FFF7E6FF0023237723681A6912F0040F7B
:102AA00012D0DA6812F0040F0ED06FF004021A612F
:102AB0000223237723689B6913F4407F5FD020466D
:102AC000FFF7CEFF0023237723681A6912F0080F5F
:102AD00012D0DA6812F0080F0ED06FF008021A61F7
:102AE000042323772368DB6913F0030F4ED02046BD
:102AF000FFF7B6FF0023237723681A6912F0100F3F
:102B000012D0DA6812F0100F0ED06FF010021A61B6
:102B1000082323772368DB6913F4407F3DD02046E8
:102B2000FFF79EFF0023237723681A6912F0010F35
:102B300003D0DA6812F0010F36D123681A6912F057
:102B4000800F03D0DA6812F0800F34D123681A693D
:102B500012F0400F03D0DA6812F0400F32D1236830
:102B60001A6912F0200F03D0DA6812F0200F30D16A
:102B700010BDFFF774FF2046FFF773FF8AE720467A
:102B8000FFF76DFF2046FFF76CFF9BE72046FFF73E
:102B900066FF2046FFF765FFACE72046FFF75FFFC3
:102BA0002046FFF75EFFBDE76FF001021A61204685
:102BB000FEF708FCC1E76FF080021A61204600F0C2
:102BC0006BFBC3E76FF040021A612046FFF74AFF34
:102BD000C5E76FF020021A61204600F05CFBC7E7F2
:102BE00003681B4A90420AD0B0F1804F07D0A2F58B
:102BF0009432904203D002F58062904203D123F0D8
:102C000070034A681343124A90420AD0B0F1804FD1
:102C100007D0A2F59432904203D002F58062904230
:102C200003D123F44073CA68134323F080034A6935
:102C3000134303608B68C3620B688362044B984242
:102C400002D00123436170470B690363F9E700BFBA
:102C5000002C014040B310B5044690F83D30F3B16C
:102C6000022384F83D30214651F8040BFFF7B8FFEA
:102C7000012384F8463084F83E3084F83F3084F8ED
:102C8000403084F8413084F8423084F8433084F88E
:102C9000443084F8453084F83D30002010BD80F881
:102CA0003C30FEF755FEDBE70120704740B310B51E
:102CB000044690F83D30F3B1022384F83D302146BC
:102CC00051F8040BFFF78CFF012384F8463084F899
:102CD0003E3084F83F3084F8403084F8413084F846
:102CE000423084F8433084F8443084F8453084F826
:102CF0003D30002010BD80F83C30FFF7AFFEDBE731
:102D000001207047002857D070B50D46044690F852
:102D10003D30002B4BD0022384F83D30226893686D
:102D200023F4804323F007039360214651F8040BFA
:102D3000FFF756FF21688A688B690E6A286810437E
:102D400023F4407C2CF0030CAA68AB6942EA03230D
:102D500043EA0C0323F47C4323F0FC03EA69D5F82F
:102D60000CC04CEA022C4CEA030C2A6A13032A69B1
:102D700043EA021343EA0C0326F022066A686D69EF
:102D800042EA05123243886021688B6123681A6227
:102D9000012384F8463084F83E3084F83F3084F8CC
:102DA000423084F8433084F83D30002070BD80F814
:102DB0003C30FEF7FDFDAEE70120704730B4036AFA
:102DC000026A22F0100202624468826922F4E6423A
:102DD0000D6842EA052223F020038D6843EA0513BB
:102DE0000E4DA84209D00D4DA8420ED0446082611C
:102DF0004A688263036230BC704723F08003CD6869
:102E000043EA051323F04003EDE724F440644D69E1
:102E100044EA85048D6944EA8504E7E7002C014013
:102E200038B590F83C30012B66D004460D4601239E
:102E300080F83C300C2A5AD8DFE802F0075959597B
:102E40001B5959593059595944000068FFF7F2FC91
:102E50002268936943F0080393612268936923F021
:102E6000040393612268936929690B4393610020ED
:102E70003EE00068FFF7A2FF2268936943F4006315
:102E800093612268936923F4806393612268936954
:102E9000296943EA01239361002029E00068FFF7D4
:102EA000F7FC2268D36943F00803D3612268D36931
:102EB00023F00403D3612268D36929690B43D361EA
:102EC000002015E00068FFF715FD2268D36943F480
:102ED0000063D3612268D36923F48063D3612268DD
:102EE000D369296943EA0123D361002000E001206E
:102EF000002384F83C3038BD0220FCE710B484681D
:102F000024F47F4C42EA03220A4342EA0C02826024
:102F100010BC704790F83C30012B78D010B50446B7
:102F2000012380F83C30022380F83D30026893682A
:102F300023F47F4323F0770393600B68602B4CD01E
:102F400029D8402B54D00CD9502B22D1CA684968BB
:102F50000068FFF7F3FC50212068FFF714FD002004
:102F600005E0202B0DD009D9302B0AD001200123F8
:102F700084F83D30002384F83C3010BD0BB1102B99
:102F800005D119462068FFF7FEFC0020EFE701207D
:102F9000EDE70120EBE7B3F5805F34D0B3F5005FD8
:102FA0000CD1CB684A6889680068FFF7A7FF2268E0
:102FB000936843F4804393600020D8E7702B24D1BA
:102FC000CB684A6889680068FFF798FF22689368B1
:102FD00043F0770393600020C9E7CA684968006836
:102FE000FFF7BEFC60212068FFF7CDFC0020BEE7A4
:102FF000CA6849680068FFF7A1FC40212068FFF714
:10300000C2FC0020B3E70020B1E70120AFE70220B7
:10301000704701F01F01012303FA01FC036A23EA50
:103020000C030362036A02FA01F10B430362704767
:1030300010B50446084651BB94F83E30DBB2013B64
:1030400018BF0123002B5BD1002839D1022384F85B
:103050003E30012201462068FFF7DBFF23682A4A41
:1030600093423DD02368284A93423ED0B3F1804F2B
:103070003BD0A2F59432934237D002F5806293425E
:1030800033D01A6842F001021A60002039E00429A6
:1030900008D008290DD094F84130DBB2013B18BFAD
:1030A0000123CFE794F83F30DBB2013B18BF012387
:1030B000C8E794F84030DBB2013B18BF0123C1E7F9
:1030C000042805D0082807D0022384F84130C0E73F
:1030D000022384F83F30BCE7022384F84030B8E78D
:1030E0005A6C42F400425A64BCE79A6802F0070244
:1030F000062A07D01A6842F001021A60002000E098
:10310000012010BD0020FCE7002C014038B504462A
:1031100090F83E00C0B294F83F3094F84220D2B20A
:1031200094F843C00D46B1B9012849D1012A48D1CC
:10313000022384F83E3084F842307DB3042D39D028
:10314000012200212068FFF764FF0122042120688A
:10315000FFF75FFF27E0DBB25FFA8CFC042912D097
:10316000012833D1012B2CD1012A31D1BCF1010F1F
:1031700030D1022384F83E3084F83F3084F8423066
:1031800084F84330D9E7012B1CD1BCF1010F1BD1CE
:10319000022384F83F3084F84330CEE70122002137
:1031A0002068FFF736FF2268136843F001031360BD
:1031B000002006E0012204212068FFF72AFFF2E741
:1031C000012038BD0120FCE71846FAE70120F8E7A6
:1031D0001846F6E71046F4E790F83C30012B2CD067
:1031E00010B4012380F83C30022380F83D3003689E
:1031F0005A689C6822F0700C0A6842EA0C025A6015
:1032000003680F4A93420AD0B3F1804F07D0A2F56A
:103210009432934203D002F58062934204D124F0A9
:1032200080044A6814439C60012380F83D300023E9
:1032300080F83C30184610BC70470220704700BF31
:10324000002C014090F83C30012B22D0012380F863
:103250003C30CB6823F440738A68134323F48063C3
:103260004A68134323F400630A68134323F480532A
:103270000A69134323F400534A69134323F4804338
:10328000CA69134302685364002380F83C3018462F
:1032900070470220704770477047026802F10C03C4
:1032A00053E8003F23F490730C3242E800310029C8
:1032B000F3D1026802F1140353E8003F23F0010345
:1032C000143242E800310029F3D1036B012B05D001
:1032D000202380F84230002303637047026802F124
:1032E0000C0353E8003F23F010030C3242E8003196
:1032F0000029F3D1ECE790F84130DBB2212B01D06B
:10330000022070478368B3F5805F17D0036A5A1CA8
:1033100002621A7803685A60C38C9BB2013B9BB26D
:10332000C3844BB90268D36823F08003D36002687A
:10333000D36843F04003D360002070470369002B3B
:10334000E4D1036A1B880268C3F308035360036A6D
:1033500002330362E0E7000010B504460268136917
:1033600023F44053C1680B4313618368026913431C
:1033700042691A430168CB6823F4B05323F00C036D
:103380001343CB600268536923F4407381690B4394
:1033900053610268134B9A4220D0FFF72BFA024682
:1033A00002EB820202EB820263689B00B2FBF3F243
:1033B0000D48A0FB02314909642303FB11231B01C3
:1033C0003233A0FB03235B0903F0F00202EB01128E
:1033D00003F00F03216813448B6010BDFFF71AFA46
:1033E0000246DDE7003801401F85EB512DE9F84327
:1033F00005460F4616469946DDF820802C6824685D
:1034000037EA04030CBF4FF0010C4FF0000CB44539
:103410002DD1B8F1FF3FF1D0B8F1000F05D0FEF784
:10342000D7FCA0EB09004045E8D92A6802F10C035B
:1034300053E8003F23F4D0730C3242E800310029F6
:10344000F3D12A6802F1140353E8003F23F001038B
:10345000143242E800310029F3D1202385F84130AD
:1034600085F84230002385F84030032000E000203A
:10347000BDE8F88360B310B5044690F8413013B34B
:10348000242384F841302268D36823F40053D360A6
:103490002046FFF761FF2268136923F4904313610C
:1034A0002268536923F02A0353612268D36843F4E6
:1034B0000053D36000206064202384F8413084F8F6
:1034C0004230606310BD80F84030FEF79BFBD7E7C9
:1034D000012070472DE9F04182B01E4690F841303E
:1034E000DBB2202B4BD104460D46904600294AD032
:1034F0000AB9012044E000234364212380F84130CD
:10350000FEF766FC0746A4F82480A4F82680A3688A
:10351000B3F5805F02D04FF000080FE02369FBB1E4
:103520004FF000080AE038F8023B2268C3F30803B2
:103530005360E28C92B2013A92B2E284E38C9BB285
:103540008BB100963B46002280212046FFF74EFFBC
:10355000D8B9002DE7D015F8012B23685A60E8E7A9
:10356000A8460025EAE700963B4600224021204677
:10357000FFF73CFF58B9202384F8413000E00220D7
:1035800002B0BDE8F0810120FAE70320F8E703204C
:10359000F6E7704708B50168CA6822F04002CA60C1
:1035A000202280F84120FFF7F4FF002008BD70477B
:1035B00008B5406A0023C385C384FFF7F8FF08BD40
:1035C000704790F84230DBB2222B69D18368B3F5A3
:1035D000805F4FD0826AB3F5805F04D0002B56D154
:1035E0000369002B53D103685B681370836A01334E
:1035F0008362C38D9BB2013B9BB2C385002B51D12B
:1036000000B583B00268D36823F02003D36002685A
:10361000D36823F48073D3600268536923F00103F5
:103620005361202380F8423000234363036B012B56
:1036300033D100230363026802F10C0353E8003F17
:1036400023F010030C3242E800310029F3D1036863
:103650001A6812F0100F06D0002201921A68019227
:103660005B680193019B818DFFF7AAFF002003B0E7
:103670005DF804FB0269002AACD1826A03685B68CA
:10368000C3F308031380836A02338362B1E70368DC
:103690005B6803F07F031370A8E7FDF7EFFEE5E733
:1036A000022070470020704730B583B0044602689E
:1036B0001368D068516913F00F0505D113F0200F7E
:1036C00002D010F0200F19D12DB111F0010119D144
:1036D00010F4907F16D1216B01297DD013F0800F5B
:1036E00003D010F0800F40F0188113F0400F03D08A
:1036F00010F0400F40F0158103B030BD2046FFF7B9
:1037000060FFF9E713F0010F06D010F4807F03D0BB
:10371000626C42F00102626413F0040F04D019B12C
:10372000626C42F00202626413F0020F04D019B11D
:10373000626C42F00402626413F0080F07D010F0CC
:10374000200F00D119B1626C42F008026264626C11
:10375000002AD1D013F0200F02D010F0200F29D171
:1037600023685B6903F04003626C12F0080F00D11C
:1037700063B32046FFF791FD23685B6913F0400FA8
:1037800020D0226802F1140353E8003F23F04003E5
:10379000143242E800310029F3D1E36B73B1634A7C
:1037A0005A63E06BFEF7BEFB0028A5D0E06B436BCD
:1037B0009847A1E72046FFF704FFD1E72046FFF72F
:1037C000F6FE99E72046FFF7F2FE95E72046FFF761
:1037D000EEFE002363648FE713F0100F3FF47EAF1B
:1037E00010F0100F3FF47AAF002301931368019398
:1037F00053680193019B536913F0400F51D0E26B62
:1038000013685B689BB2002B3FF476AFA18D9942A1
:103810007FF672AFE3859369202B37D0226802F1DF
:103820000C0353E8003F23F480730C3242E800316C
:103830000029F3D1226802F1140353E8003F23F07A
:103840000103143242E800310029F3D1226802F169
:10385000140353E8003F23F04003143242E80031E0
:103860000029F3D1202384F8423000232363226807
:1038700002F10C0353E8003F23F010030C3242E83E
:1038800000310029F3D1E06BFEF728FB02236363CC
:10389000A18DE38D9BB2C91A89B22046FFF790FE35
:1038A0002AE7A18DE38D9BB2C91A89B2E38D9BB241
:1038B000002B3FF421AF00293FF41EAF226802F134
:1038C0000C0353E8003F23F490730C3242E80030BD
:1038D0000028F3D1226802F1140353E8003F23F0DB
:1038E0000103143242E800300028F3D1202384F889
:1038F000423000232363226802F10C0353E8003FA7
:1039000023F010030C3242E800300028F3D10223E8
:1039100063632046FFF754FEEEE62046FFF7EBFC1C
:10392000EAE62046FFF736FEE6E600BFB1350008BE
:1039300081628285C28500234364222380F842305D
:10394000036923B10268D36843F48073D3600268CB
:10395000536943F0010353610268D36843F02003C5
:10396000D3600020704708B590F84230DBB2202BBE
:1039700008D149B10AB9012008BD00230363FFF74C
:10398000D7FFF9E70220F7E70120F5E7014B1868B8
:10399000704700BF2000002070B50D4E0D4D761B06
:1039A000B61006D0002455F8043B01349847A642CF
:1039B000F9D1094E094D05F0EDFF761BB61006D082
:1039C000002455F8043B01349847A642F9D170BD54
:1039D000F89D0008F89D0008009E0008F89D00086A
:1039E000830730B548D0541E002A3FD00346CAB2E0
:1039F00001E0013C3AD303F8012B9D07F9D1032CD8
:103A00002DD9CDB245EA05250F2C45EA054536D915
:103A1000A4F1100222F00F0C03F1200EE6444FEA4D
:103A2000121C03F1100242E9045542E9025510321A
:103A30007245F8D10CF1010214F00C0F03EB0212E5
:103A400004F00F0C13D0ACF1040323F00303043390
:103A5000134442F8045B9342FBD10CF003042CB1F5
:103A6000CAB21C4403F8012B9C42FBD130BD644612
:103A70001346002CF4D1F9E703461446BFE71A4673
:103A8000A446E0E720F0030110F00300C0F10000BD
:103A900051F8043B00F1040C4FEACC0C6FF000022B
:103AA0001CBF22FA0CF213434FF0010C4CEA0C2C11
:103AB0004CEA0C4CA3EB0C0222EA030212EACC12F1
:103AC00004BF51F8043B0430F4D0C2F1000102EA13
:103AD0000102B2FA82F2C2F11F0200EBD20070477B
:103AE0008C4630B504466FF000451346084A9BB03B
:103AF0001068084A6946039262460595029500944B
:103B0000049400F037F80022009B1A701BB030BDFF
:103B1000200000200802FFFF024B13B1024800F012
:103B200005B8704700000000393B0008002301463B
:103B30001A46184601F070BD38B5084B084D5B1B9E
:103B40009C1007D0043B1D44013C55F804399847AC
:103B5000002CF9D1BDE8384005F022BF049E0008D2
:103B6000009E0008704700BF704700BF704700BF4D
:103B7000704700BF2DE9F04FD5B00C460C9191462F
:103B80000E930A9002F0DAFE036818461793FFF7C7
:103B900079FFA3891690190603D52369002B00F03D
:103BA0008F8700242BAB224698464D46CDE9294409
:103BB0002893129400230024CDE914342B78CDE906
:103BC0001922CDE91B2218920892002B00F0CE8119
:103BD000AA4604E01AF8013F002B00F00981252BCA
:103BE000F8D1BAEB050640F007819AF80030002BB7
:103BF00000F0BC8100234FF0FF324FF02B0920244E
:103C00001F469AF8016007920AF1010A8DF8833085
:103C100009930AF1010AA6F120035A2B00F2208130
:103C2000DFE813F0CA021E011E01C5021E011E01BB
:103C30001E01A3021E011E016A00F3021E014702BB
:103C4000D9021E01D4025B005B005B005B005B00DD
:103C50005B005B005B005B001E011E011E011E017C
:103C60001E011E011E01B0011E010B027A00B001EF
:103C7000B001B0011E011E011E011E019E021E01A7
:103C80001E01B6001E011E011E0119021E014C027A
:103C90001E011E013F071E011E011E011E011E0105
:103CA0001E011E011E01B0011E010B027C00B001AD
:103CB000B001B00191027C0075001E0184021E015A
:103CC0007002B8005E0275001E01190272001C0726
:103CD0001E011E011F071E0172000022A6F1300303
:103CE0001AF8016B02EB820203EB4202A6F13003E9
:103CF000092BF5D909928EE70E9B53F8042B002A65
:103D000009920E93C0F2D2819AF8006081E79AF886
:103D1000006047F020077CE747F01007BA060E9BCB
:103D200040F17D81073323F007031A465B6852F8A0
:103D3000084B99460E92002BC0F27F85079B0133FA
:103D400001F0398054EA090327F0800B00F0058563
:103D50000A2C79F1000380F0938701235F46303409
:103D60008DF84F410B930DF24F15079A0B990023D5
:103D70008A42B8BF0A4606929DF883200D930F939E
:103D800013931093002A7CD0069B0133069378E0AE
:103D900047F0100717F0200900F032810E9B07331F
:103DA00023F00703D3F8049053F8084B0E93002335
:103DB00027F4806B00228DF88320079A511C00F0B5
:103DC0002A8254EA09012BF0800740F02382002A5E
:103DD00041F02B80002B40F0C5841BF001030B93B6
:103DE00000F0548530230DF24F158DF84F31BCE7AC
:103DF000BAEB050600F0BA802A9BC8E900563344A6
:103E00002A93299B0133072B299305DC08F1080825
:103E1000089B33440893E8E60C990A9828AA03F013
:103E2000B3FC80B90DF1AC08F2E70C990A9828AA06
:103E300003F0AAFC002800F08A800D9B1BB10D99AD
:103E40000A9802F07BFC0C9B9B8913F0400F089BA7
:103E500018BF4FF0FF330893089855B0BDE8F08FB6
:103E6000002E00F08380012300228DF8EC60069381
:103E70003BAD8DF883200B930D9207920F92139216
:103E8000109217F0020302D006990231069117F042
:103E9000840B07D109990698A1EB0009B9F1000F2D
:103EA00000F336832A9C82B10122C8F80420299AA3
:103EB000013401320DF18301072A2A942992C8F8AE
:103EC000001000F3698308F108087BB10223C8F8E9
:103ED0000430299B0234013321AA072B2A94299309
:103EE000C8F8002000F36C8308F10808BBF1800FCC
:103EF00000F02E82079B0B9AA3EB020BBBF1000F85
:103F000000F37182FB0500F1C5810B9BC8F80050DE
:103F10001C44C8F80430299B2A940133072B2993A9
:103F200000F3EA8208F108087B0705D5099B069A89
:103F30009D1A002D00F35083DDE9083206998A426C
:103F4000ACBF9B185B180893002C7FF46EAF002366
:103F500029930D9B1BB10D990A9802F0EFFB554672
:103F60000DF1AC082B78002B7FF432AE2A9B002B8E
:103F70003FF469AF0C9C0A98214628AA03F004FC80
:103F8000A38962E70E9B073323F00702F2E80234AD
:103F9000CDE91434DDE9143424F000449946184680
:103FA0000E9221464FF0FF32B64BFCF741FF00283E
:103FB00040F09684484621464FF0FF32B14BFCF763
:103FC00019FF002840F08C84DDE914010022002351
:103FD000FCF706FF002840F0A6879DF8832000210B
:103FE0000320A94DA94B27F080070D910690472E7D
:103FF000C8BF1D4607910B900F9113911091C1E618
:1040000017F0100340F0628417F0400200F07B8745
:104010000E9A994652F8044B0E92A4B2C7E653F892
:10402000044B0E93FB0600F141847D0640F13B8476
:1040300044F3C0394B4624B27DE6012000220E9B9A
:10404000069053F8041B3BAD8DF883208DF8EC10DF
:104050000E930B9010E74FF000090E9C079B54F84D
:10406000045B8DF88390002D00F0EE865A1C00F062
:1040700060851A464946284602F010FF0D90002838
:1040800001F09E800D9B9DF883205B1B0B9323EA20
:10409000E373CDF81C900E940693CDF83490CDF8D0
:1040A0003C90CDF84C90CDF840906BE6099B5B427C
:1040B00009939AF8006047F00407AAE547F0100B4F
:1040C0001BF0200900F0AA830E9B073323F007039F
:1040D0001A4652F8084BD3F804900E92012369E671
:1040E000302278260E9B8DF8842053F8044B684AC2
:1040F0000E934FF00009022347F0020B8DF8856004
:10410000189257E6BD0600F1D683FC0600F19386AF
:10411000780600F15D87B90540F18D860E9B089900
:1041200053F8042B554611700E931BE79AF8006064
:104130006C2E03BF9AF8016047F020070AF1010ACC
:1041400047F0100765E59AF80060682E03BF9AF8FB
:10415000016047F400770AF1010A47F0400758E58B
:104160009AF8006047F0080753E50A9E304602F0CF
:10417000E5FB436818461B93FFF784FC0346304673
:104180001C931E4602F0DAFB83681993002E3FF45D
:10419000BBAD199B002B3FF4B7AD199B1B78002BCF
:1041A0003FF4B2AD9AF8006047F4806731E59AF8C1
:1041B000006047F001072CE59DF88330002B7FF469
:1041C000A3AD9AF800608DF8834022E59AF800606C
:1041D00047F080071DE5524612F8016B2A2E01F0C8
:1041E000EB81A6F13003092B924698BF002201F221
:1041F00003801AF8016B02EB820203EB4202A6F184
:104200003003092BF5D9079205E59AF800608DF87F
:104210008390FEE4BB46012B3FF49AAD022B54ADD4
:1042200012D1189A04F00F03D35C240944EA0974EC
:104230004FEA191905F8013D54EA0903F2D154ABCC
:104240005B1B5F460B9390E504F00703E40844EA28
:1042500049744FEAD909303354EA09012A4605F86E
:10426000013DF1D11BF0010FE9D0302BE7D0302315
:10427000023A05F8013C54AB9B1A5F4615460B9376
:1042800073E500BFFFFFEF7FF8990008FC99000875
:10429000089A0008652E40F3E980DDE91401002248
:1042A0000023FCF793FD002800F0D2810123C8F819
:1042B0000430299BBF4A01330134072B2A942993E8
:1042C000C8F8002000F37A8508F10808229B129AAA
:1042D000934280F2D782169B179A1C44C8E90023A8
:1042E000299B2A940133072B299300F3DD8308F1DE
:1042F0000808129B5D1E002D7FF716AE102D41F3AE
:104300004181DFF8B492224649461026B946299BDE
:104310000F46DDF828B00C9C05E008F10808103DB8
:10432000102D40F3588501331032072BC8E9007671
:10433000CDE92932F1DD2146584628AA03F024FAB6
:1043400000287FF47AADDDE929320DF1AC08E6E70B
:10435000099B069AA3EB020BBBF1000F7FF7CAADD6
:10436000BBF1100F41F30580DFF84C924146204627
:10437000A8464C461023299A0C9DDDF8289006E0AB
:10438000ABF1100BBBF1100F01F1080119DD013287
:104390001030072AC1E90043CDE92920F0DD294684
:1043A000484628AA03F0F0F900287FF446ADDDE97D
:1043B0002920ABF1100BBBF1100F4FF010032BA90C
:1043C000E5DC4546A1468846044601325C44072A9E
:1043D000CDE92924C8F80090C8F804B000F3188586
:1043E00008F1080886E5BBF1100F40F39785DFF868
:1043F000C89141462046A8464C461023299A0C9D58
:10440000DDF8289006E0ABF1100BBBF1100F01F1C5
:10441000080119DD01321030072AC1E90043CDE956
:104420002920F0DD2946484628AA03F0ADF90028E6
:104430007FF403ADDDE92920ABF1100BBBF1100FC8
:104440004FF010032BA9E5DC4546A14688460446FB
:1044500001325C44072ACDE92924C8F80090C8F845
:1044600004B000F3CE8108F108084BE5129B012B44
:1044700040F37E810123299E01341E44072EC8F893
:1044800000502A94C8F80430299600F3E18108F11D
:104490000808169B0136179A1C44072EC8E900230A
:1044A000CDE9296400F3E18108F108080022DDE983
:1044B00014010023FCF78AFC002840F07681129B4F
:1044C0000136013B01351C44072EC8F800502996DF
:1044D000C8F804302A9400F35B8108F108081A9B9D
:1044E00001361C44C8F80430072E24ABCDE92964FA
:1044F000C8F800307FF716AD0C990A9828AA03F087
:1045000043F900287FF499AC2A9C0DF1AC080BE527
:10451000B9F1100F40F35086DDE929214046CDE97D
:104520001D36B84610244F460C9EA9460A9D04E04D
:10453000103F102F00F1080016DD01321F4B103123
:10454000072AC0E90034CDE92921F1DD31462846AA
:1045500028AA03F019F900287FF46FACDDE92921BE
:10456000103F102F2BA8E8DC4D46DDE91D36B9467B
:104570004746804609EB010401321049072ACDE97C
:104580002924C8F80490C8F8001000F3C3839DF8EC
:10459000832008F1080886E40C990A9828AA1D933C
:1045A00003F0F2F800287FF448AC2A9C1D9B0DF123
:1045B000AC088AE4389A00084C9A00083C9A000833
:1045C0000C990A9828AA03F0DFF800287FF435AC8C
:1045D0002A9C0DF1AC0889E4102D40F3C486102606
:1045E000299B0A9FDDF8309004E0103D102D08F162
:1045F000080817DD0133B84A1034072BC8E9002634
:10460000CDE92934F1DD4946384628AA03F0BCF843
:1046100000287FF412ACDDE92934103D102D0DF196
:10462000AC08E7DC0133AC4A2C44072BCDE9293434
:10463000C8F80450C8F800207FF77EAC0C990A989F
:1046400028AA03F0A1F800287FF4F7AB2A9C73E4B2
:104650002299002940F36F83DDF84090129B994521
:10466000A8BF9946B9F1000F0BDD299B4C440133DB
:10467000072BC8E900592A94299300F31D8508F1F6
:104680000808109EB9F1000FA8BFA6EB0906002E7E
:1046900000F32582DDF840B07805AB4400F15F827D
:1046A000229B129A934202DBF90740F17684169A14
:1046B00017991444C8E90012299A2A940132072A4A
:1046C000299200F3138508F10808129AAE18A6EB98
:1046D0000B06D51AAE42A8BF2E46002E0DDD299B33
:1046E00034440133072BC8F800B0C8F804602A949A
:1046F000299300F3718508F10808002EA8BFAD1BAF
:10470000002D7FF711AC102D40F33C87DFF8CC91E2
:10471000224649461026B946299B0F46DDF828B0A7
:104720000C9C05E008F10808103D102D40F3538360
:1047300001331032072BC8E90076CDE92932F1DDCB
:104740002146584628AA03F01FF800287FF475ABCD
:10475000DDE929320DF1AC08E6E7079B002B7FF479
:10476000FCAA5F46002354AD07930B93FFF7FDBAF5
:10477000FA073FF57FAE0123299E01341E44072E20
:10478000C8F800502A94C8F8043029967FF7A5AEDF
:104790000C990A9828AA02F0F7FF00287FF44DAB85
:1047A000DDE929640DF1AC0899E6129B5D1E002D30
:1047B0007FF795AE102D40F3DF86224607974FF026
:1047C000100BDFF818910A9C0C9F05E008F108080F
:1047D000103D102D40F37F8301361032072EC8E9BB
:1047E000009BCDE92962F1DD3946204628AA02F076
:1047F000CBFF00287FF421ABDDE929620DF1AC0885
:10480000E6E70C990A9828AA02F0BEFF00287FF478
:1048100014AB2A9C0DF1AC08FFF774BB1BF010031E
:104820000E9A3AD11BF0400133D052F8044B99460E
:104830000E920123A4B2FFF7BDBA2D2364428DF876
:104840008330BB464FF0010369EB4909FFF7B5BA66
:104850000C990A9828AA02F097FF00287FF4EDAA85
:10486000DDE929640DF1AC0813E60C990A9828AA31
:1048700002F08AFF00287FF4E0AADDE929640DF147
:10488000AC0813E6FD077FF54FAB24E554ADFFF709
:104890006CBA1BF4007940F08A8352F8044B012370
:1048A0000E92FFF787BAB80500F19B834FEAE479CF
:1048B0004B46FFF740BA0E9B089853F8041BC217EB
:1048C0005546C1E900020E93FFF74CBB0E9B53F80F
:1048D000044B0E93FFF76BBA3C9A00084C9A000801
:1048E000DDE9140102460B46FCF7A2FA002840F06D
:1048F000E985612E00F07D85412E00F08B84079BB9
:10490000013300F08F8326F02003472B069300F03D
:104910008F85DDE9141247F480730F931346002B43
:10492000C0F2B0850B9300238B461D930D93069B1D
:10493000462B00F0E983452B00F0468507990B9B39
:1049400001910221009126A9049123A9039122A992
:104950005A460A98029100F03BFF069B0546472BFA
:1049600040F03A8617F0010FB9460F9F40F0FE84E1
:10497000269B5B1B1293069B472B00F06E83069BC6
:10498000462B00F0F083229B1093109B069A013B6C
:10499000412A229300F0BB850021F2B2002B8DF852
:1049A0009020B6BF2D222B22109B8DF89120B8BFEE
:1049B000C3F10103092B40F39B850DF19F0C624667
:1049C000B64F1C46104687FB0312D917C1EBA20154
:1049D00001EB8102A3EB42023032632C00F8012C80
:1049E0000B4600F1FF32ECDC3033811EDBB28C452C
:1049F00002F8013C40F2F9850DF1920101E012F854
:104A0000013B944501F8013BF9D10DF1A1030DF1F2
:104A100092021B1A134424AA9B1A1A93129B1A9AE5
:104A2000012B1A440B9240F381850B9B169A134479
:104A30000B9300230B9A29F4806722EAE27247F471
:104A400080770F930692139310931D9B002B40F0D9
:104A50002C839DF883200793FFF794B9BB46FFF79B
:104A60002FBB8F4B189317F0200900F0F5800E9B99
:104A7000073323F00703D3F8049053F8084B0E9341
:104A8000F80709D554EA090306D030238DF885606C
:104A900047F002078DF88430022327F4806BFFF77C
:104AA00089B9804B1893DEE70C990A9828AA02F07E
:104AB0006BFE00287FF4C1A92A9C0DF1AC0818E414
:104AC00040210A9801F03EFF0C9B186018610028F5
:104AD00000F0978540230C9A5361FFF762B8102EBF
:104AE00040F37685DFF8C091424648462146A84605
:104AF000B9464FF0100B0746299B0A9C0C9D04E019
:104B00000832103E102E40F3138201331031072B70
:104B1000C2E9007BCDE92931F2DD2946204628AAE9
:104B200002F032FE00287FF488A9DDE929312BAAA2
:104B3000E7E72846CDF81C900E94FEF7A3FF20EA85
:104B4000E0739DF883200B90CDF83490CDF83C9025
:104B5000CDF84C90CDF840900693FFF713B9129B17
:104B60004246DDF84C80EB185E460793CDF82CA04A
:104B700010972146199FDDF87090DDF828A0DDF828
:104B800030B00F9B1395B8F1000F2ED083BB013FBF
:104B900008F1FF381B9B4944C2E90039299B2A913F
:104BA0000133072B299360DC0832079B38789B1B65
:104BB0008342A8BF0346002B1C460BDD29981944ED
:104BC00001300728C2E900632A91299000F314817B
:104BD00038780832002CB4BF0546051B002D0BDCCD
:104BE00006440F9BB8F1000FD0D1002B00F02682B5
:104BF0000F9B013B0F93CDE7102D40F39D841024B4
:104C0000299804E0103D102D02F1080216DD013054
:104C1000254B10310728C2E90034CDE92901F1DD27
:104C20005946504628AA02F0AFFD00287FF405A996
:104C3000DDE92901103D102D2BAAE8DC01301A4BCB
:104C400029440728CDE929015560136000F341820A
:104C5000387808320644C4E717F0100300F0A0804B
:104C60000E9B53F8044B0E930AE75946504628AA68
:104C700002F08AFD00287FF4E0A82A992BAA94E785
:104C800000230BF480620696CDF82CA0CDF834807A
:104C900092461E46DDF8648054AF14E0676666668F
:104CA000089A00081C9A00084C9A00080023204625
:104CB00049460A22FCF7FAF80A2C79F100031BD3C3
:104CC000044689462F4620460A2200234946FCF71F
:104CD000EDF830327D1E013607F8012CBAF1000FD5
:104CE000E4D098F800309E42E0D1FF2EDED00A2CAE
:104CF00079F1000380F0308154AB5B1BDDF82CA010
:104D0000CDF8648012965F46069EDDF834800B93E2
:104D1000FFF72BB80C990A9828AA1D9302F034FDCE
:104D200000287FF48AA89DF883202A9C1D9B0DF102
:104D3000AC08FFF7B8B80123C8F80430299BBC4A77
:104D400001330134072B2A942993C8F8002000F37B
:104D5000178108F10808002940F08680129A07F0B0
:104D6000010313433FF4E0A8169B17991A19C8E9E9
:104D70000013299B2A920133072B299300F33781D3
:104D800008F10808129901338C18072BCDE9293452
:104D9000C8F80050C8F804107FF7C4A8FFF7ACBBF0
:104DA00017F0400200F0A5800E9A994652F8044B85
:104DB0000E92A4B264E6BB46FEF7CABF0C990A98ED
:104DC00028AA02F0E1FC00287FF437A82A9C0DF104
:104DD000AC08FFF77BBA14463A464F46914601337A
:104DE0002C44072BC8F80090C8F80450CDE92934AA
:104DF0007FF798A8FFF780BB5946504628AA02F0D3
:104E0000C3FC00287FF419A838782A992BAAE1E678
:104E10000C990A9828AA02F0B7FC00287FF40DA884
:104E20002A9C0DF1AC08FFF765B8012BBB467FF457
:104E3000F5A9FEF792BF0E9B089953F8042B55462F
:104E400011600E93FFF78EB8062B294628BF062364
:104E50002A4607950D950693764D0E940B930F9168
:104E600013911091FEF78EBF169B17981A19C8E977
:104E70000003299B2A920133072B299300F3B78063
:104E800008F108080029BFF67DAF4E42103180F2CC
:104E9000A98341461024A846DFF89C91DDF828B08C
:104EA0000C9D04E00831103E102E40F3A782013320
:104EB0001032072BC1E90094CDE92932F2DD2946F1
:104EC000584628AA02F060FC00287EF4B6AFDDE95F
:104ED00029322BA9E7E71446079F01362C44072EF9
:104EE000CDE92964C8F80090C8F804507FF7F5AA06
:104EF0004EE417F400790E9B66D053F8044B9146AC
:104F00000E93E4B2BCE517F400790E9B57D053F82A
:104F1000044B91460E93E4B2FEF749BF299ADFF89D
:104F20001891FFF795BA2D228DF88320FFF757B817
:104F3000454690463A460C464F4691460133344426
:104F4000072BCDE92934C8F80090C8F804605CDC70
:104F500008F10808FFF79EBB1C9B1B99ED1A1A4627
:104F6000284602F0DDFB98F801300BB108F101088A
:104F7000204649460A2200230026FBF797FF9FE6BA
:104F80000C990A9828AA02F0FFFB00287EF455AF7E
:104F900022992A9C0DF1AC08DDE6129AAE18A6EB18
:104FA0000B06D51AAE42A8BF2E46FFF7A6BB52F895
:104FB000044B894601230E92E4B2FEF7FBBE53F880
:104FC000044B0E93FEF7F3BE53F8044B0E9357E5D4
:104FD0000E9B089953F8042B554611800E93FEF74B
:104FE000C1BF44F3C0194B4664B2FEF7A4BE0C998E
:104FF0000A9828AA02F0C8FB00287EF41EAFDDE95B
:10500000293222990DF1AC083CE70C990A9828AA9C
:1050100002F0BAFB00287EF410AF2A9C0DF1AC0818
:10502000FFF738BB0623079326F02003069370E4AE
:10503000389A0008309A00084C9A0008DDE91235C9
:10504000EB189E42B346199790460C4628BF9B46E4
:10505000DDF82CA0109FFFF723BB229BDA1C1093D6
:1050600002DB079A934204DD023E26F020030693FA
:105070008BE4109B129A9342C0F2C28019F0010F88
:1050800000F01D82169A13440B9319F4806F00F000
:105090001482109B6726002B76DC0B9B23EAE373BC
:1050A000069300230F931393CFE42D2200238DF852
:1050B00083200793FEF768BE0C990A9828AA02F08D
:1050C00063FB00287EF4B9AE2A9C0DF1AC08FFF713
:1050D000D8BA5946504628AA02F056FB00287EF45A
:1050E000ACAE38782A992BAA06447AE50C990A982E
:1050F00028AA02F049FB00287EF49FAE229B2A9C3E
:105100000DF1AC08FFF7E1BA07990B9B0191032160
:10511000009126A9049123A9039122A95A460A982D
:10512000029100F055FB03780546302B00F0168203
:10513000229B079AB94613440F9FEC185846002249
:1051400000230B99FBF742FE08B1234611E4269B8E
:10515000A342BFF40EAC30215A1C26921970269B34
:105160009C42F9D805E4229A002A109240F30E825C
:10517000079909F001030B4340F07E816626109BDE
:105180000B9319F4806F88D019990B78FF2B00F0DE
:1051900025820024109A204604E001300131FF2BC3
:1051A00000F05981934280F25681D21A4B78002B3D
:1051B000F3D10B780134F2E7DDE92921FFF7DAB901
:1051C000079B9DF883200E9406930B9307900F90F6
:1051D00013901090FEF7D6BD0C990A9828AA02F0F9
:1051E000D3FA00287EF429AE229D129B2A9C0DF151
:1051F000AC085D1BFFF781BA00230793FEF70BBDD8
:10520000129B169A9A18109B0B92002B40F38581E3
:105210006726B6E730238DF8843058238DF8853023
:10522000079B47F00204632B00F3C48000233BADCF
:105230000D9347F481730F93DDE914121346002B8D
:105240002746C0F284800B9300238B461D9326F0E3
:1052500020030693612E00F01881412E7FF467AB86
:1052600022AA58460B9902F011FA00224FF07F5300
:10527000FBF744FB02460B46CDE910230022002336
:10528000FBF7A4FD08B101232293AD4B0B93079BC1
:10529000CDE912A6CDE91E78DDE91067AB46DDF851
:1052A0002CA003F1FF39109506E00022002309F13C
:1052B000FF39FBF78BFDE8B90022A24B3046394697
:1052C000FBF71CFB0F460646FBF7C8FD0446FBF741
:1052D000ABFA0B46024639463046FBF757F91AF847
:1052E0000430B9F1FF3FD8464D4606460F460BF84D
:1052F000013BDAD1304639460022934BA946DDF80E
:1053000048A0109DCDF84880CDE91001DDF87C80E3
:10531000139E1E9FFBF782FD80BBDDE9100100227A
:10532000894BFBF753FD08B1E10727D44B46002B0F
:1053300006DB302201335B440BF8012B5B45FBD1CC
:10534000ABEB0503B94612930F9FFFF714BB26F092
:10535000200306932D22DDE914349B4604F100431B
:105360001D920B9376E7299BFFF75CB9079BEC181E
:10537000E4E6299ADFF8D491FFF727B8129B269329
:105380000B9B1BF8012CD97B5B468A4209D130204C
:1053900003F8010C269B5A1E269213F8012C914209
:1053A000F6D0392A0BBF0B9A0132927AD2B203F8A7
:1053B000012CC5E70A98591C01F0C4FA05460028DB
:1053C00000F017810D9034E70221009107995A46A9
:1053D0004C1C26A9049123A9039122A90B9B0A988E
:1053E0000194029100F0F4F90546B9462C440F9F50
:1053F000A4E630238DF8843078230FE745468846AD
:1054000001333244072BCDE92932C8F80090C8F89F
:1054100004607FF7B5AC0C990A9828AA02F0B4F999
:1054200000287EF40AADDDE929320DF1AC08A9E4CB
:10543000079B002B08BF0123079347F480730F934A
:10544000159B002BC0F2B680DDF850B00D900B9389
:105450001D90FFF773BA1991109213900F940F9A41
:10546000139B1C9913440B9A01FB03230B9323EA10
:10547000E3730693FFF7E9BA169B6626D31819441F
:105480000B917EE600230D9364E722AA58460B9900
:1054900002F0FCF800224FF07F53FBF72FFA024690
:1054A0000B46CDE9102300220023FBF78FFC08B147
:1054B00001232293264B0B93E9E66726EDE5109B2B
:1054C0000B93E2E5159B0320002BB8BF2D224FF074
:1054D0000003A8BF9DF8832019460D931D4D1E4B58
:1054E000B8BF8DF8832027F080070690FEF77FBDB8
:1054F000002944D130228DF892200DF193023033EF
:1055000002F8013B24ABD31A1A93FFF787BA06F1CE
:105510000F020121D2B2FFF741BAC3F101031A44CD
:1055200022EAE27367260B920693BAE519F0010F9F
:105530003FF47FAAFFF779BA2998FFF77FBB00BF36
:105540001C9A0008000030400000E03F4C9A000820
:10555000089A0008009A0008049A00085846002299
:1055600000230B99FBF732FC00287FF4E1AD079B89
:10557000C3F101032293DCE5DFF89890ADE40DF16F
:105580009202BCE7299BDFF88C9028E4079A09F087
:10559000010959EA020304D10123662606930B93FD
:1055A0007FE5169B662601331A4422EAE2730B92CA
:1055B000069376E50D90CDE60E9B9AF80160924633
:1055C00053F8042B0E9342EAE2730793FEF721BBD4
:1055D000299BDFF84090B1E4079C06E700230F9376
:1055E00013933CE7DFF82C900AE702231A93FFF7A6
:1055F00015BA0C998B8943F0400213468A81FEF755
:1056000024BC4FF0FF320C2308920A9A1360FEF775
:1056100023BC00BF4C9A00082DE9F047DFF87CA0BE
:105620000646DAF8000098460F469146FEF79EFAC5
:105630001B4B1B68D3F8484124B365681F2D26DC3B
:105640005EB96B1C0235DAF80000636044F825701F
:10565000FEF78EFA0020BDE8F087012304EB8501F8
:10566000C1F88890D4F88821AB401A43022EC4F8C0
:105670008821C1F80881E4D1D4F88C211343C4F8FF
:105680008C31DEE703F5A674C3F84841D5E7DAF8B4
:105690000000FEF76DFA4FF0FF30DCE75004002009
:1056A000F49900082DE9F04F03690C6985B0A34215
:1056B000C0F28980013C01F11405A30000F1140837
:1056C000019355F8243058F8242001338A469A4231
:1056D00008EB84018146B2FBF3F605EB84070291E7
:1056E0003AD30021AE4640460A46A34603955EF8EB
:1056F000045B0468ABB206FB03132D0C190C06FB0C
:1057000005119BB2D21A1FFA84FC94448AB2C2EBF0
:10571000144202EB2C421FFA8CFC4CEA0243774500
:1057200040F8043B4FEA11414FEA2242DFD2019B8D
:105730005C4658F80330039D73B9029B043B9845BF
:1057400004D307E0984504F1FF3403D253F8042949
:10575000002AF7D0C9F810405146484601F06EFEC5
:1057600000282CDB40460023013655F8041BD0F8F6
:1057700000C08AB29A1A1FFA8CFE0B0C7244C3EB5B
:105780001C4303EB224392B242EA0342AF4240F889
:10579000042B4FEA2343E8D258F8242008EB840373
:1057A0006AB9043B984504D307E0984504F1FF34F7
:1057B00003D253F80429002AF7D0C9F81040304624
:1057C00005B0BDE8F08F002005B0BDE8F08F00BF48
:1057D0002DE9F04F90469946016C99B00446CDE909
:1057E0000489259D41B10123426C93408B604A603E
:1057F00001F0CEFB00232364B9F1000AB4BF0123FA
:1058000000232B60764BBCBF2AF0004ACDF814A0D1
:1058100033EA0A0300F0AA80DDE9042310461946A2
:1058200000220023CDE90A01FBF7D0FA074670B148
:105830000123249A1360269B002B00F0E68269481E
:105840001860431E0393039819B0BDE8F08F16ABA0
:10585000019317AB00932046DDE90A2301F0B4FE63
:105860005FEA1A56054640F09780DDE916763E4419
:1058700006F23240202840F3B783C0F140000AFA14
:1058800000FA06F2124028FA00F04AEA0000FAF79D
:10589000BBFF0123013E0F93A1F1F8710022524B8F
:1058A000FAF774FE48A3D3E90023FBF727F848A3CF
:1058B000D3E90023FAF76CFE804630468946FAF7B2
:1058C000B3FF45A3D3E90023FBF718F802460B46C4
:1058D00040464946FAF75CFE80468946FBF7BEFA29
:1058E00000228346002340464946FBF779FA002808
:1058F00040F07E82BBF1160F00F26D82DDE90A01F5
:105900003A4B03EBCB03D3E90023FBF769FA0028FA
:1059100072D00023BE1B0E93731E0BF1FF3B069348
:1059200000F1608200230993BBF1000F6BDA099B41
:10593000CDF81CB0A3EB0B030993CBF100030D933F
:10594000229B4FF0000B092B66D8052B40F34A83AE
:105950000026043B2293229B023B032B00F26C8621
:10596000DFE813F061045E045504380442F20F735B
:10597000249ACAF3130A13605AEA08031AD1269B21
:10598000002B00F068861A4B03930833269A03987D
:10599000136019B0BDE8F08FDDE90A12C2F31303FA
:1059A000084643F07F510F97A6F2FF36169F41F449
:1059B000401173E7269B002B40F0EF830D4B0393C0
:1059C00041E700BFAFF3008061436F63A787D23F19
:1059D000B3C8608B288AC63FFB799F501344D33FDE
:1059E0000000F07F399A00080000F83FA89B0008EB
:1059F000609A00085C9A0008BE1B731E069300F1B3
:105A00008A840E900990069B5B44CDE9063B0023F7
:105A10000D93229B092B98D9002322934FF0FF333B
:105A20000126089300230C9623930021089B6164B0
:105A30001293204601F086FA0390002800F00486B5
:105A4000039B2364089B0E2B00F21481002E00F0B0
:105A500011810799002940F36084AF4B01F00F02D8
:105A600003EBC2030A46D3E900674FEA2118D105C8
:105A700040F11784DDE90A01A84B4FF0030AD3E98E
:105A80000823FBF765F8CDE9100108F00F08B8F11D
:105A9000000F13D0DFF8849218F0010F09D0D9E974
:105AA000002330463946FAF729FF06460F460AF129
:105AB000010A5FEA680809F10809EDD1DDE9100182
:105AC00032463B46FBF744F8804689460E9B43B17D
:105AD000002240464946924BFBF782F9002840F0ED
